{
  "_format": "hh-sol-artifact-1",
  "contractName": "CryptoDevsNFT",
  "sourceName": "contracts/CryptoDevsNFT.sol",
  "abi": [
    {
      "inputs": [],
      "stateMutability": "nonpayable",
      "type": "constructor"
    },
    {
      "inputs": [],
      "name": "ERC721EnumerableForbiddenBatchMint",
      "type": "error"
    },
    {
      "inputs": [
        {
          "internalType": "address",
          "name": "sender",
          "type": "address"
        },
        {
          "internalType": "uint256",
          "name": "tokenId",
          "type": "uint256"
        },
        {
          "internalType": "address",
          "name": "owner",
          "type": "address"
        }
      ],
      "name": "ERC721IncorrectOwner",
      "type": "error"
    },
    {
      "inputs": [
        {
          "internalType": "address",
          "name": "operator",
          "type": "address"
        },
        {
          "internalType": "uint256",
          "name": "tokenId",
          "type": "uint256"
        }
      ],
      "name": "ERC721InsufficientApproval",
      "type": "error"
    },
    {
      "inputs": [
        {
          "internalType": "address",
          "name": "approver",
          "type": "address"
        }
      ],
      "name": "ERC721InvalidApprover",
      "type": "error"
    },
    {
      "inputs": [
        {
          "internalType": "address",
          "name": "operator",
          "type": "address"
        }
      ],
      "name": "ERC721InvalidOperator",
      "type": "error"
    },
    {
      "inputs": [
        {
          "internalType": "address",
          "name": "owner",
          "type": "address"
        }
      ],
      "name": "ERC721InvalidOwner",
      "type": "error"
    },
    {
      "inputs": [
        {
          "internalType": "address",
          "name": "receiver",
          "type": "address"
        }
      ],
      "name": "ERC721InvalidReceiver",
      "type": "error"
    },
    {
      "inputs": [
        {
          "internalType": "address",
          "name": "sender",
          "type": "address"
        }
      ],
      "name": "ERC721InvalidSender",
      "type": "error"
    },
    {
      "inputs": [
        {
          "internalType": "uint256",
          "name": "tokenId",
          "type": "uint256"
        }
      ],
      "name": "ERC721NonexistentToken",
      "type": "error"
    },
    {
      "inputs": [
        {
          "internalType": "address",
          "name": "owner",
          "type": "address"
        },
        {
          "internalType": "uint256",
          "name": "index",
          "type": "uint256"
        }
      ],
      "name": "ERC721OutOfBoundsIndex",
      "type": "error"
    },
    {
      "anonymous": false,
      "inputs": [
        {
          "indexed": true,
          "internalType": "address",
          "name": "owner",
          "type": "address"
        },
        {
          "indexed": true,
          "internalType": "address",
          "name": "approved",
          "type": "address"
        },
        {
          "indexed": true,
          "internalType": "uint256",
          "name": "tokenId",
          "type": "uint256"
        }
      ],
      "name": "Approval",
      "type": "event"
    },
    {
      "anonymous": false,
      "inputs": [
        {
          "indexed": true,
          "internalType": "address",
          "name": "owner",
          "type": "address"
        },
        {
          "indexed": true,
          "internalType": "address",
          "name": "operator",
          "type": "address"
        },
        {
          "indexed": false,
          "internalType": "bool",
          "name": "approved",
          "type": "bool"
        }
      ],
      "name": "ApprovalForAll",
      "type": "event"
    },
    {
      "anonymous": false,
      "inputs": [
        {
          "indexed": true,
          "internalType": "address",
          "name": "from",
          "type": "address"
        },
        {
          "indexed": true,
          "internalType": "address",
          "name": "to",
          "type": "address"
        },
        {
          "indexed": true,
          "internalType": "uint256",
          "name": "tokenId",
          "type": "uint256"
        }
      ],
      "name": "Transfer",
      "type": "event"
    },
    {
      "inputs": [
        {
          "internalType": "address",
          "name": "to",
          "type": "address"
        },
        {
          "internalType": "uint256",
          "name": "tokenId",
          "type": "uint256"
        }
      ],
      "name": "approve",
      "outputs": [],
      "stateMutability": "nonpayable",
      "type": "function"
    },
    {
      "inputs": [
        {
          "internalType": "address",
          "name": "owner",
          "type": "address"
        }
      ],
      "name": "balanceOf",
      "outputs": [
        {
          "internalType": "uint256",
          "name": "",
          "type": "uint256"
        }
      ],
      "stateMutability": "view",
      "type": "function"
    },
    {
      "inputs": [
        {
          "internalType": "uint256",
          "name": "tokenId",
          "type": "uint256"
        }
      ],
      "name": "getApproved",
      "outputs": [
        {
          "internalType": "address",
          "name": "",
          "type": "address"
        }
      ],
      "stateMutability": "view",
      "type": "function"
    },
    {
      "inputs": [
        {
          "internalType": "address",
          "name": "owner",
          "type": "address"
        },
        {
          "internalType": "address",
          "name": "operator",
          "type": "address"
        }
      ],
      "name": "isApprovedForAll",
      "outputs": [
        {
          "internalType": "bool",
          "name": "",
          "type": "bool"
        }
      ],
      "stateMutability": "view",
      "type": "function"
    },
    {
      "inputs": [],
      "name": "mint",
      "outputs": [],
      "stateMutability": "nonpayable",
      "type": "function"
    },
    {
      "inputs": [],
      "name": "name",
      "outputs": [
        {
          "internalType": "string",
          "name": "",
          "type": "string"
        }
      ],
      "stateMutability": "view",
      "type": "function"
    },
    {
      "inputs": [
        {
          "internalType": "uint256",
          "name": "tokenId",
          "type": "uint256"
        }
      ],
      "name": "ownerOf",
      "outputs": [
        {
          "internalType": "address",
          "name": "",
          "type": "address"
        }
      ],
      "stateMutability": "view",
      "type": "function"
    },
    {
      "inputs": [
        {
          "internalType": "address",
          "name": "from",
          "type": "address"
        },
        {
          "internalType": "address",
          "name": "to",
          "type": "address"
        },
        {
          "internalType": "uint256",
          "name": "tokenId",
          "type": "uint256"
        }
      ],
      "name": "safeTransferFrom",
      "outputs": [],
      "stateMutability": "nonpayable",
      "type": "function"
    },
    {
      "inputs": [
        {
          "internalType": "address",
          "name": "from",
          "type": "address"
        },
        {
          "internalType": "address",
          "name": "to",
          "type": "address"
        },
        {
          "internalType": "uint256",
          "name": "tokenId",
          "type": "uint256"
        },
        {
          "internalType": "bytes",
          "name": "data",
          "type": "bytes"
        }
      ],
      "name": "safeTransferFrom",
      "outputs": [],
      "stateMutability": "nonpayable",
      "type": "function"
    },
    {
      "inputs": [
        {
          "internalType": "address",
          "name": "operator",
          "type": "address"
        },
        {
          "internalType": "bool",
          "name": "approved",
          "type": "bool"
        }
      ],
      "name": "setApprovalForAll",
      "outputs": [],
      "stateMutability": "nonpayable",
      "type": "function"
    },
    {
      "inputs": [
        {
          "internalType": "bytes4",
          "name": "interfaceId",
          "type": "bytes4"
        }
      ],
      "name": "supportsInterface",
      "outputs": [
        {
          "internalType": "bool",
          "name": "",
          "type": "bool"
        }
      ],
      "stateMutability": "view",
      "type": "function"
    },
    {
      "inputs": [],
      "name": "symbol",
      "outputs": [
        {
          "internalType": "string",
          "name": "",
          "type": "string"
        }
      ],
      "stateMutability": "view",
      "type": "function"
    },
    {
      "inputs": [
        {
          "internalType": "uint256",
          "name": "index",
          "type": "uint256"
        }
      ],
      "name": "tokenByIndex",
      "outputs": [
        {
          "internalType": "uint256",
          "name": "",
          "type": "uint256"
        }
      ],
      "stateMutability": "view",
      "type": "function"
    },
    {
      "inputs": [
        {
          "internalType": "address",
          "name": "owner",
          "type": "address"
        },
        {
          "internalType": "uint256",
          "name": "index",
          "type": "uint256"
        }
      ],
      "name": "tokenOfOwnerByIndex",
      "outputs": [
        {
          "internalType": "uint256",
          "name": "",
          "type": "uint256"
        }
      ],
      "stateMutability": "view",
      "type": "function"
    },
    {
      "inputs": [
        {
          "internalType": "uint256",
          "name": "tokenId",
          "type": "uint256"
        }
      ],
      "name": "tokenURI",
      "outputs": [
        {
          "internalType": "string",
          "name": "",
          "type": "string"
        }
      ],
      "stateMutability": "view",
      "type": "function"
    },
    {
      "inputs": [],
      "name": "totalSupply",
      "outputs": [
        {
          "internalType": "uint256",
          "name": "",
          "type": "uint256"
        }
      ],
      "stateMutability": "view",
      "type": "function"
    },
    {
      "inputs": [
        {
          "internalType": "address",
          "name": "from",
          "type": "address"
        },
        {
          "internalType": "address",
          "name": "to",
          "type": "address"
        },
        {
          "internalType": "uint256",
          "name": "tokenId",
          "type": "uint256"
        }
      ],
      "name": "transferFrom",
      "outputs": [],
      "stateMutability": "nonpayable",
      "type": "function"
    }
  ],
  "bytecode": "0x60806040523480156200001157600080fd5b506040518060400160405280600a81526020017f43727970746f44657673000000000000000000000000000000000000000000008152506040518060400160405280600281526020017f434400000000000000000000000000000000000000000000000000000000000081525081600090816200008f919062000324565b508060019081620000a1919062000324565b5050506200040b565b600081519050919050565b7f4e487b7100000000000000000000000000000000000000000000000000000000600052604160045260246000fd5b7f4e487b7100000000000000000000000000000000000000000000000000000000600052602260045260246000fd5b600060028204905060018216806200012c57607f821691505b602082108103620001425762000141620000e4565b5b50919050565b60008190508160005260206000209050919050565b60006020601f8301049050919050565b600082821b905092915050565b600060088302620001ac7fffffffffffffffffffffffffffffffffffffffffffffffffffffffffffffffff826200016d565b620001b886836200016d565b95508019841693508086168417925050509392505050565b6000819050919050565b6000819050919050565b600062000205620001ff620001f984620001d0565b620001da565b620001d0565b9050919050565b6000819050919050565b6200022183620001e4565b6200023962000230826200020c565b8484546200017a565b825550505050565b600090565b6200025062000241565b6200025d81848462000216565b505050565b5b8181101562000285576200027960008262000246565b60018101905062000263565b5050565b601f821115620002d4576200029e8162000148565b620002a9846200015d565b81016020851015620002b9578190505b620002d1620002c8856200015d565b83018262000262565b50505b505050565b600082821c905092915050565b6000620002f960001984600802620002d9565b1980831691505092915050565b6000620003148383620002e6565b9150826002028217905092915050565b6200032f82620000aa565b67ffffffffffffffff8111156200034b576200034a620000b5565b5b62000357825462000113565b6200036482828562000289565b600060209050601f8311600181146200039c576000841562000387578287015190505b62000393858262000306565b86555062000403565b601f198416620003ac8662000148565b60005b82811015620003d657848901518255600182019150602085019450602081019050620003af565b86831015620003f65784890151620003f2601f891682620002e6565b8355505b6001600288020188555050505b505050505050565b612510806200041b6000396000f3fe608060405234801561001057600080fd5b506004361061010b5760003560e01c806342842e0e116100a257806395d89b411161007157806395d89b41146102ca578063a22cb465146102e8578063b88d4fde14610304578063c87b56dd14610320578063e985e9c5146103505761010b565b806342842e0e1461021e5780634f6ccce71461023a5780636352211e1461026a57806370a082311461029a5761010b565b80631249c58b116100de5780631249c58b146101aa57806318160ddd146101b457806323b872dd146101d25780632f745c59146101ee5761010b565b806301ffc9a71461011057806306fdde0314610140578063081812fc1461015e578063095ea7b31461018e575b600080fd5b61012a60048036038101906101259190611c99565b610380565b6040516101379190611ce1565b60405180910390f35b6101486103fa565b6040516101559190611d8c565b60405180910390f35b61017860048036038101906101739190611de4565b61048c565b6040516101859190611e52565b60405180910390f35b6101a860048036038101906101a39190611e99565b6104a8565b005b6101b26104be565b005b6101bc6104d1565b6040516101c99190611ee8565b60405180910390f35b6101ec60048036038101906101e79190611f03565b6104de565b005b61020860048036038101906102039190611e99565b6105e0565b6040516102159190611ee8565b60405180910390f35b61023860048036038101906102339190611f03565b610689565b005b610254600480360381019061024f9190611de4565b6106a9565b6040516102619190611ee8565b60405180910390f35b610284600480360381019061027f9190611de4565b61071f565b6040516102919190611e52565b60405180910390f35b6102b460048036038101906102af9190611f56565b610731565b6040516102c19190611ee8565b60405180910390f35b6102d26107eb565b6040516102df9190611d8c565b60405180910390f35b61030260048036038101906102fd9190611faf565b61087d565b005b61031e60048036038101906103199190612124565b610893565b005b61033a60048036038101906103359190611de4565b6108b0565b6040516103479190611d8c565b60405180910390f35b61036a600480360381019061036591906121a7565b610919565b6040516103779190611ce1565b60405180910390f35b60007f780e9d63000000000000000000000000000000000000000000000000000000007bffffffffffffffffffffffffffffffffffffffffffffffffffffffff1916827bffffffffffffffffffffffffffffffffffffffffffffffffffffffff191614806103f357506103f2826109ad565b5b9050919050565b60606000805461040990612216565b80601f016020809104026020016040519081016040528092919081815260200182805461043590612216565b80156104825780601f1061045757610100808354040283529160200191610482565b820191906000526020600020905b81548152906001019060200180831161046557829003601f168201915b5050505050905090565b600061049782610a8f565b506104a182610b17565b9050919050565b6104ba82826104b5610b54565b610b5c565b5050565b6104cf336104ca6104d1565b610b6e565b565b6000600880549050905090565b600073ffffffffffffffffffffffffffffffffffffffff168273ffffffffffffffffffffffffffffffffffffffff16036105505760006040517f64a0ae920000000000000000000000000000000000000000000000000000000081526004016105479190611e52565b60405180910390fd5b6000610564838361055f610b54565b610b8c565b90508373ffffffffffffffffffffffffffffffffffffffff168173ffffffffffffffffffffffffffffffffffffffff16146105da578382826040517f64283d7b0000000000000000000000000000000000000000000000000000000081526004016105d193929190612247565b60405180910390fd5b50505050565b60006105eb83610731565b82106106305782826040517fa57d13dc00000000000000000000000000000000000000000000000000000000815260040161062792919061227e565b60405180910390fd5b600660008473ffffffffffffffffffffffffffffffffffffffff1673ffffffffffffffffffffffffffffffffffffffff168152602001908152602001600020600083815260200190815260200160002054905092915050565b6106a483838360405180602001604052806000815250610893565b505050565b60006106b36104d1565b82106106f9576000826040517fa57d13dc0000000000000000000000000000000000000000000000000000000081526004016106f092919061227e565b60405180910390fd5b6008828154811061070d5761070c6122a7565b5b90600052602060002001549050919050565b600061072a82610a8f565b9050919050565b60008073ffffffffffffffffffffffffffffffffffffffff168273ffffffffffffffffffffffffffffffffffffffff16036107a45760006040517f89c62b6400000000000000000000000000000000000000000000000000000000815260040161079b9190611e52565b60405180910390fd5b600360008373ffffffffffffffffffffffffffffffffffffffff1673ffffffffffffffffffffffffffffffffffffffff168152602001908152602001600020549050919050565b6060600180546107fa90612216565b80601f016020809104026020016040519081016040528092919081815260200182805461082690612216565b80156108735780601f1061084857610100808354040283529160200191610873565b820191906000526020600020905b81548152906001019060200180831161085657829003601f168201915b5050505050905090565b61088f610888610b54565b8383610ca9565b5050565b61089e8484846104de565b6108aa84848484610e18565b50505050565b60606108bb82610a8f565b5060006108c6610fcf565b905060008151116108e65760405180602001604052806000815250610911565b806108f084610fe6565b604051602001610901929190612312565b6040516020818303038152906040525b915050919050565b6000600560008473ffffffffffffffffffffffffffffffffffffffff1673ffffffffffffffffffffffffffffffffffffffff16815260200190815260200160002060008373ffffffffffffffffffffffffffffffffffffffff1673ffffffffffffffffffffffffffffffffffffffff16815260200190815260200160002060009054906101000a900460ff16905092915050565b60007f80ac58cd000000000000000000000000000000000000000000000000000000007bffffffffffffffffffffffffffffffffffffffffffffffffffffffff1916827bffffffffffffffffffffffffffffffffffffffffffffffffffffffff19161480610a7857507f5b5e139f000000000000000000000000000000000000000000000000000000007bffffffffffffffffffffffffffffffffffffffffffffffffffffffff1916827bffffffffffffffffffffffffffffffffffffffffffffffffffffffff1916145b80610a885750610a87826110b4565b5b9050919050565b600080610a9b8361111e565b9050600073ffffffffffffffffffffffffffffffffffffffff168173ffffffffffffffffffffffffffffffffffffffff1603610b0e57826040517f7e273289000000000000000000000000000000000000000000000000000000008152600401610b059190611ee8565b60405180910390fd5b80915050919050565b60006004600083815260200190815260200160002060009054906101000a900473ffffffffffffffffffffffffffffffffffffffff169050919050565b600033905090565b610b69838383600161115b565b505050565b610b88828260405180602001604052806000815250611320565b5050565b600080610b9a85858561133c565b9050600073ffffffffffffffffffffffffffffffffffffffff168173ffffffffffffffffffffffffffffffffffffffff1603610bde57610bd984611556565b610c1d565b8473ffffffffffffffffffffffffffffffffffffffff168173ffffffffffffffffffffffffffffffffffffffff1614610c1c57610c1b818561159f565b5b5b600073ffffffffffffffffffffffffffffffffffffffff168573ffffffffffffffffffffffffffffffffffffffff1603610c5f57610c5a84611700565b610c9e565b8473ffffffffffffffffffffffffffffffffffffffff168173ffffffffffffffffffffffffffffffffffffffff1614610c9d57610c9c85856117d1565b5b5b809150509392505050565b600073ffffffffffffffffffffffffffffffffffffffff168273ffffffffffffffffffffffffffffffffffffffff1603610d1a57816040517f5b08ba18000000000000000000000000000000000000000000000000000000008152600401610d119190611e52565b60405180910390fd5b80600560008573ffffffffffffffffffffffffffffffffffffffff1673ffffffffffffffffffffffffffffffffffffffff16815260200190815260200160002060008473ffffffffffffffffffffffffffffffffffffffff1673ffffffffffffffffffffffffffffffffffffffff16815260200190815260200160002060006101000a81548160ff0219169083151502179055508173ffffffffffffffffffffffffffffffffffffffff168373ffffffffffffffffffffffffffffffffffffffff167f17307eab39ab6107e8899845ad3d59bd9653f200f220920489ca2b5937696c3183604051610e0b9190611ce1565b60405180910390a3505050565b60008373ffffffffffffffffffffffffffffffffffffffff163b1115610fc9578273ffffffffffffffffffffffffffffffffffffffff1663150b7a02610e5c610b54565b8685856040518563ffffffff1660e01b8152600401610e7e949392919061238b565b6020604051808303816000875af1925050508015610eba57506040513d601f19601f82011682018060405250810190610eb791906123ec565b60015b610f3e573d8060008114610eea576040519150601f19603f3d011682016040523d82523d6000602084013e610eef565b606091505b506000815103610f3657836040517f64a0ae92000000000000000000000000000000000000000000000000000000008152600401610f2d9190611e52565b60405180910390fd5b805181602001fd5b63150b7a0260e01b7bffffffffffffffffffffffffffffffffffffffffffffffffffffffff1916817bffffffffffffffffffffffffffffffffffffffffffffffffffffffff191614610fc757836040517f64a0ae92000000000000000000000000000000000000000000000000000000008152600401610fbe9190611e52565b60405180910390fd5b505b50505050565b606060405180602001604052806000815250905090565b606060006001610ff58461185c565b01905060008167ffffffffffffffff81111561101457611013611ff9565b5b6040519080825280601f01601f1916602001820160405280156110465781602001600182028036833780820191505090505b509050600082602001820190505b6001156110a9578080600190039150507f3031323334353637383961626364656600000000000000000000000000000000600a86061a8153600a858161109d5761109c612419565b5b04945060008503611054575b819350505050919050565b60007f01ffc9a7000000000000000000000000000000000000000000000000000000007bffffffffffffffffffffffffffffffffffffffffffffffffffffffff1916827bffffffffffffffffffffffffffffffffffffffffffffffffffffffff1916149050919050565b60006002600083815260200190815260200160002060009054906101000a900473ffffffffffffffffffffffffffffffffffffffff169050919050565b80806111945750600073ffffffffffffffffffffffffffffffffffffffff168273ffffffffffffffffffffffffffffffffffffffff1614155b156112c85760006111a484610a8f565b9050600073ffffffffffffffffffffffffffffffffffffffff168373ffffffffffffffffffffffffffffffffffffffff161415801561120f57508273ffffffffffffffffffffffffffffffffffffffff168173ffffffffffffffffffffffffffffffffffffffff1614155b801561122257506112208184610919565b155b1561126457826040517fa9fbf51f00000000000000000000000000000000000000000000000000000000815260040161125b9190611e52565b60405180910390fd5b81156112c657838573ffffffffffffffffffffffffffffffffffffffff168273ffffffffffffffffffffffffffffffffffffffff167f8c5be1e5ebec7d5bd14f71427d1e84f3dd0314c0f7b2291e5b200ac8c7c3b92560405160405180910390a45b505b836004600085815260200190815260200160002060006101000a81548173ffffffffffffffffffffffffffffffffffffffff021916908373ffffffffffffffffffffffffffffffffffffffff16021790555050505050565b61132a83836119af565b6113376000848484610e18565b505050565b6000806113488461111e565b9050600073ffffffffffffffffffffffffffffffffffffffff168373ffffffffffffffffffffffffffffffffffffffff161461138a57611389818486611aa8565b5b600073ffffffffffffffffffffffffffffffffffffffff168173ffffffffffffffffffffffffffffffffffffffff161461141b576113cc60008560008061115b565b6001600360008373ffffffffffffffffffffffffffffffffffffffff1673ffffffffffffffffffffffffffffffffffffffff168152602001908152602001600020600082825403925050819055505b600073ffffffffffffffffffffffffffffffffffffffff168573ffffffffffffffffffffffffffffffffffffffff161461149e576001600360008773ffffffffffffffffffffffffffffffffffffffff1673ffffffffffffffffffffffffffffffffffffffff168152602001908152602001600020600082825401925050819055505b846002600086815260200190815260200160002060006101000a81548173ffffffffffffffffffffffffffffffffffffffff021916908373ffffffffffffffffffffffffffffffffffffffff160217905550838573ffffffffffffffffffffffffffffffffffffffff168273ffffffffffffffffffffffffffffffffffffffff167fddf252ad1be2c89b69c2b068fc378daa952ba7f163c4a11628f55a4df523b3ef60405160405180910390a4809150509392505050565b6008805490506009600083815260200190815260200160002081905550600881908060018154018082558091505060019003906000526020600020016000909190919091505550565b60006115aa83610731565b905060006007600084815260200190815260200160002054905081811461168f576000600660008673ffffffffffffffffffffffffffffffffffffffff1673ffffffffffffffffffffffffffffffffffffffff168152602001908152602001600020600084815260200190815260200160002054905080600660008773ffffffffffffffffffffffffffffffffffffffff1673ffffffffffffffffffffffffffffffffffffffff168152602001908152602001600020600084815260200190815260200160002081905550816007600083815260200190815260200160002081905550505b6007600084815260200190815260200160002060009055600660008573ffffffffffffffffffffffffffffffffffffffff1673ffffffffffffffffffffffffffffffffffffffff16815260200190815260200160002060008381526020019081526020016000206000905550505050565b600060016008805490506117149190612477565b9050600060096000848152602001908152602001600020549050600060088381548110611744576117436122a7565b5b906000526020600020015490508060088381548110611766576117656122a7565b5b9060005260206000200181905550816009600083815260200190815260200160002081905550600960008581526020019081526020016000206000905560088054806117b5576117b46124ab565b5b6001900381819060005260206000200160009055905550505050565b600060016117de84610731565b6117e89190612477565b905081600660008573ffffffffffffffffffffffffffffffffffffffff1673ffffffffffffffffffffffffffffffffffffffff168152602001908152602001600020600083815260200190815260200160002081905550806007600084815260200190815260200160002081905550505050565b600080600090507a184f03e93ff9f4daa797ed6e38ed64bf6a1f01000000000000000083106118ba577a184f03e93ff9f4daa797ed6e38ed64bf6a1f01000000000000000083816118b0576118af612419565b5b0492506040810190505b6d04ee2d6d415b85acef810000000083106118f7576d04ee2d6d415b85acef810000000083816118ed576118ec612419565b5b0492506020810190505b662386f26fc10000831061192657662386f26fc10000838161191c5761191b612419565b5b0492506010810190505b6305f5e100831061194f576305f5e100838161194557611944612419565b5b0492506008810190505b612710831061197457612710838161196a57611969612419565b5b0492506004810190505b60648310611997576064838161198d5761198c612419565b5b0492506002810190505b600a83106119a6576001810190505b80915050919050565b600073ffffffffffffffffffffffffffffffffffffffff168273ffffffffffffffffffffffffffffffffffffffff1603611a215760006040517f64a0ae92000000000000000000000000000000000000000000000000000000008152600401611a189190611e52565b60405180910390fd5b6000611a2f83836000610b8c565b9050600073ffffffffffffffffffffffffffffffffffffffff168173ffffffffffffffffffffffffffffffffffffffff1614611aa35760006040517f73c6ac6e000000000000000000000000000000000000000000000000000000008152600401611a9a9190611e52565b60405180910390fd5b505050565b611ab3838383611b6c565b611b6757600073ffffffffffffffffffffffffffffffffffffffff168373ffffffffffffffffffffffffffffffffffffffff1603611b2857806040517f7e273289000000000000000000000000000000000000000000000000000000008152600401611b1f9190611ee8565b60405180910390fd5b81816040517f177e802f000000000000000000000000000000000000000000000000000000008152600401611b5e92919061227e565b60405180910390fd5b505050565b60008073ffffffffffffffffffffffffffffffffffffffff168373ffffffffffffffffffffffffffffffffffffffff1614158015611c2457508273ffffffffffffffffffffffffffffffffffffffff168473ffffffffffffffffffffffffffffffffffffffff161480611be55750611be48484610919565b5b80611c2357508273ffffffffffffffffffffffffffffffffffffffff16611c0b83610b17565b73ffffffffffffffffffffffffffffffffffffffff16145b5b90509392505050565b6000604051905090565b600080fd5b600080fd5b60007fffffffff0000000000000000000000000000000000000000000000000000000082169050919050565b611c7681611c41565b8114611c8157600080fd5b50565b600081359050611c9381611c6d565b92915050565b600060208284031215611caf57611cae611c37565b5b6000611cbd84828501611c84565b91505092915050565b60008115159050919050565b611cdb81611cc6565b82525050565b6000602082019050611cf66000830184611cd2565b92915050565b600081519050919050565b600082825260208201905092915050565b60005b83811015611d36578082015181840152602081019050611d1b565b60008484015250505050565b6000601f19601f8301169050919050565b6000611d5e82611cfc565b611d688185611d07565b9350611d78818560208601611d18565b611d8181611d42565b840191505092915050565b60006020820190508181036000830152611da68184611d53565b905092915050565b6000819050919050565b611dc181611dae565b8114611dcc57600080fd5b50565b600081359050611dde81611db8565b92915050565b600060208284031215611dfa57611df9611c37565b5b6000611e0884828501611dcf565b91505092915050565b600073ffffffffffffffffffffffffffffffffffffffff82169050919050565b6000611e3c82611e11565b9050919050565b611e4c81611e31565b82525050565b6000602082019050611e676000830184611e43565b92915050565b611e7681611e31565b8114611e8157600080fd5b50565b600081359050611e9381611e6d565b92915050565b60008060408385031215611eb057611eaf611c37565b5b6000611ebe85828601611e84565b9250506020611ecf85828601611dcf565b9150509250929050565b611ee281611dae565b82525050565b6000602082019050611efd6000830184611ed9565b92915050565b600080600060608486031215611f1c57611f1b611c37565b5b6000611f2a86828701611e84565b9350506020611f3b86828701611e84565b9250506040611f4c86828701611dcf565b9150509250925092565b600060208284031215611f6c57611f6b611c37565b5b6000611f7a84828501611e84565b91505092915050565b611f8c81611cc6565b8114611f9757600080fd5b50565b600081359050611fa981611f83565b92915050565b60008060408385031215611fc657611fc5611c37565b5b6000611fd485828601611e84565b9250506020611fe585828601611f9a565b9150509250929050565b600080fd5b600080fd5b7f4e487b7100000000000000000000000000000000000000000000000000000000600052604160045260246000fd5b61203182611d42565b810181811067ffffffffffffffff821117156120505761204f611ff9565b5b80604052505050565b6000612063611c2d565b905061206f8282612028565b919050565b600067ffffffffffffffff82111561208f5761208e611ff9565b5b61209882611d42565b9050602081019050919050565b82818337600083830152505050565b60006120c76120c284612074565b612059565b9050828152602081018484840111156120e3576120e2611ff4565b5b6120ee8482856120a5565b509392505050565b600082601f83011261210b5761210a611fef565b5b813561211b8482602086016120b4565b91505092915050565b6000806000806080858703121561213e5761213d611c37565b5b600061214c87828801611e84565b945050602061215d87828801611e84565b935050604061216e87828801611dcf565b925050606085013567ffffffffffffffff81111561218f5761218e611c3c565b5b61219b878288016120f6565b91505092959194509250565b600080604083850312156121be576121bd611c37565b5b60006121cc85828601611e84565b92505060206121dd85828601611e84565b9150509250929050565b7f4e487b7100000000000000000000000000000000000000000000000000000000600052602260045260246000fd5b6000600282049050600182168061222e57607f821691505b602082108103612241576122406121e7565b5b50919050565b600060608201905061225c6000830186611e43565b6122696020830185611ed9565b6122766040830184611e43565b949350505050565b60006040820190506122936000830185611e43565b6122a06020830184611ed9565b9392505050565b7f4e487b7100000000000000000000000000000000000000000000000000000000600052603260045260246000fd5b600081905092915050565b60006122ec82611cfc565b6122f681856122d6565b9350612306818560208601611d18565b80840191505092915050565b600061231e82856122e1565b915061232a82846122e1565b91508190509392505050565b600081519050919050565b600082825260208201905092915050565b600061235d82612336565b6123678185612341565b9350612377818560208601611d18565b61238081611d42565b840191505092915050565b60006080820190506123a06000830187611e43565b6123ad6020830186611e43565b6123ba6040830185611ed9565b81810360608301526123cc8184612352565b905095945050505050565b6000815190506123e681611c6d565b92915050565b60006020828403121561240257612401611c37565b5b6000612410848285016123d7565b91505092915050565b7f4e487b7100000000000000000000000000000000000000000000000000000000600052601260045260246000fd5b7f4e487b7100000000000000000000000000000000000000000000000000000000600052601160045260246000fd5b600061248282611dae565b915061248d83611dae565b92508282039050818111156124a5576124a4612448565b5b92915050565b7f4e487b7100000000000000000000000000000000000000000000000000000000600052603160045260246000fdfea26469706673582212201318547cc4609222a5df1febbeccd34ddf23ccd921c20926cf84fc5b08377db864736f6c63430008140033",
  "linkReferences": {},
  "deployedLinkReferences": {}
}